:100000000C942A000C94E6010C94E6010C94E60191
:100010000C94E6010C94E6010C94E6010C94E601C4
:100020000C94E6010C94E6010C94E6010C94E601B4
:100030000C94E6010C94E6010C94E6010C94E601A4
:100040000C94E6010C94E6010C94E6010C94E60194
:100050000C94E60111241FBECFE5D8E0DEBFCDBF72
:0C0060000E94B4010C94DB01F894FFCF67
:10006C00613039F138F0623009F442C0633009F480
:10007C005EC00895413069F44AB321E030E0B90123
:10008C0002C0660F771F8A95E2F7CB01842B8ABBDF
:10009C00089541116AC04AB321E030E0B90102C0B1
:1000AC00660F771F8A95E2F7CB01809584238ABB74
:1000BC000895413069F447B321E030E0B90102C042
:1000CC00660F771F8A95E2F7CB01842B87BB0895C7
:1000DC0041114BC047B321E030E0B90102C0660FBB
:1000EC00771F8A95E2F7CB018095842387BB08950F
:1000FC00413069F444B321E030E0B90102C0660F2D
:10010C00771F8A95E2F7CB01842B84BB08954111AC
:10011C002CC044B321E030E0B90102C0660F771F58
:10012C008A95E2F7CB018095842384BB08954130F6
:10013C0069F441B321E030E0B90102C0660F771FCA
:10014C008A95E2F7CB01842B81BB089541110DC038
:10015C0041B321E030E0B90102C0660F771F8A95E8
:0C016C00E2F7CB018095842381BB08954D
:10017800613039F138F0623009F442C0633009F473
:100188005EC00895413069F44BB321E030E0B90115
:1001980002C0660F771F8A95E2F7CB01842B8BBBD1
:1001A800089541116AC04BB321E030E0B90102C0A3
:1001B800660F771F8A95E2F7CB01809584238BBB66
:1001C8000895413069F448B321E030E0B90102C034
:1001D800660F771F8A95E2F7CB01842B88BB0895B9
:1001E80041114BC048B321E030E0B90102C0660FAD
:1001F800771F8A95E2F7CB018095842388BB089501
:10020800413069F445B321E030E0B90102C0660F1E
:10021800771F8A95E2F7CB01842B85BB089541119E
:100228002CC045B321E030E0B90102C0660F771F4A
:100238008A95E2F7CB018095842385BB08954130E8
:1002480069F442B321E030E0B90102C0660F771FBC
:100258008A95E2F7CB01842B82BB089541110DC02A
:1002680042B321E030E0B90102C0660F771F8A95DA
:0C027800E2F7CB018095842382BB08953F
:10028400613099F028F06230E9F0633041F108956B
:100294004BB321E030E0B90102C0660F771F8A95A5
:1002A400E2F7CB0184278BBB089548B321E030E00B
:1002B400B90102C0660F771F8A95E2F7CB01842744
:1002C40088BB089545B321E030E0B90102C0660F50
:1002D400771F8A95E2F7CB01842785BB089542B343
:1002E40021E030E0B90102C0660F771F8A95E2F77A
:0802F400CB01842782BB0895B1
:1002FC00613089F028F06230C9F0633011F12CC004
:10030C0029B330E0A90102C0559547958A95E2F7CB
:10031C00CA018170089526B330E0A90102C0559539
:10032C0047958A95E2F7CA018170089523B330E0AE
:10033C00A90102C0559547958A95E2F7CA018170CB
:10034C00089520B330E0A90102C0559547958A95D0
:0C035C00E2F7CA018170089582E0089564
:1003680041E060E080E00E94360040E060E080E02C
:100378000E94BC0040E062E084E00E94360041E058
:1003880062E084E00E94BC0062E084E00E947E019A
:100398008111FACF60E00E9442012FEF84E39CE0D4
:0E03A800215080409040E1F700C00000EDCFF2
:1003B600EC010E94EB010E94EA01CE010E94EC01D1
:0603C600CE010E94E801D7
:0403CC000C9400008D
:0403D0000E94340053
:0203D40008958A
:0203D600089588
:0203D800089586
:00000001FF
